:020000040800F2
:10000000E02F00202102000843150008F11300082A
:10001000411500086D040008091C000800000000DC
:10002000000000000000000000000000890100083E
:100030006F04000800000000CD0100082519000829
:100040003B0200083B0200083B0200083B0200089C
:100050003B0200083B0200083B0200083B0200088C
:100060003B0200083B0200083B0200083B0200087C
:100070003B0200083B0200083B0200083B0200086C
:100080003B0200083B0200083B0200083B0200085C
:100090003B0200083B0200083B0200083B0200084C
:1000A0003B0200083B0200083B0200083B0200083C
:1000B0003B0200083B020008A11900083B020008AF
:1000C0003B0200083B0200083B0200083B0200081C
:1000D0003B020008FD1B00083B0200083B02000831
:1000E0003B0200083B0200083B02000800F002F857
:1000F00000F03AF80AA090E8000C82448344AAF188
:100100000107DA4501D100F02FF8AFF2090EBAE885
:100110000F0013F0010F18BFFB1A43F0010318473B
:10012000F053000010540000103A24BF78C878C182
:10013000FAD8520724BF30C830C144BF04680C60ED
:10014000704700000023002400250026103A28BF35
:1001500078C1FBD8520728BF30C148BF0B60704739
:100160001FB51FBD10B510BD00F045F91146FFF7D2
:10017000F7FF01F07BFD00F063F903B4FFF7F2FF36
:1001800003BC00F06DF90000224B19680868B0E864
:10019000F00F80F30988BFF36F8F4FF0000080F3FA
:1001A00011884EF00D0E70470000000006480068F0
:1001B000006880F3088862B661B6BFF34F8FBFF363
:1001C0006F8F00DF00BF00BF08ED00E0EFF3098094
:1001D000BFF36F8F0F4B1A6820E9F00F106008B55E
:1001E0004FF0500080F31188BFF34F8FBFF36F8F34
:1001F00002F0C0FD4FF0000080F31188BDE8084018
:1002000019680868B0E8F00F80F30988BFF36F8FB2
:10021000704700BF28000020EFF305807047000002
:100220000948804709480047FEE7FEE7FEE7FEE78A
:10023000FEE7FEE7FEE7FEE7FEE7FEE704480549C6
:10024000054A064B704700009D190008ED000008A4
:10025000E0290020E02F0020E02B0020E02B0020F0
:10026000032A40F2308010F0030C00F0158011F8E2
:10027000013BBCF1020F624498BF11F801CB00F8BA
:10028000013B38BF11F8013BA2F1040298BF00F80E
:1002900001CB38BF00F8013B11F0030300F0578099
:1002A000083AC0F0088051F8043B083A51F804CBF2
:1002B000A0E80810F5E7121D5CBF51F8043B40F8B8
:1002C000043BAFF30080D20724BF11F8013B11F8C3
:1002D00001CB48BF11F8012B24BF00F8013B00F807
:1002E00001CB48BF00F8012B704702F0FF0343EA3F
:1002F000032242EA024200F05EB84FF0000200B56D
:10030000134694469646203922BFA0E80C50A0E838
:100310000C50B1F12001BFF4F7AF090728BFA0E8E6
:100320000C5048BF0CC05DF804EB890028BF40F8B2
:10033000042B08BF704748BF20F8022B11F0804FF4
:1003400018BF00F8012B704770477047704710B511
:10035000203AC0F00B80B1E81850203AA0E81850BD
:10036000B1E81850A0E81850BFF4F5AF5FEA027C7E
:1003700024BFB1E81850A0E8185044BF18C918C0ED
:10038000BDE810405FEA827C24BF51F8043B40F88E
:10039000043B08BF7047D20728BF31F8023B48BF73
:1003A00011F8012B28BF20F8023B48BF00F8012BB1
:1003B00070474FF000020429C0F0128010F0030CC7
:1003C0003FF49DAFCCF1040CBCF1020F18BF00F854
:1003D000012BA8BF20F8022BA1EB0C01FFF78FBF68
:1003E0005FEAC17C24BF00F8012B00F8012B48BF55
:1003F00000F8012B7047754600F02CF8AE4605005A
:100400006946534620F00700854618B020B5FFF72F
:1004100015FFBDE820404FF000064FF000074FF0F9
:1004200000084FF0000B21F00701AC46ACE8C00912
:10043000ACE8C009ACE8C009ACE8C0098D4670471B
:1004400010B50446AFF300802046BDE81040FFF72A
:1004500094BE0000004870477C29002070470000CF
:1004600001491820ABBEFEE726000200FEE77047F8
:1004700070B5164D00240121284600F09BF9EE14BA
:1004800028B93146284600F095F9012805D03146B3
:10049000284600F08FF910B107E0012413E0012194
:1004A000284600F087F9012805D00121284600F0F0
:1004B00081F910B107E0022405E03146284600F03A
:1004C00079F900B90324204670BD0000000C0140FA
:1004D00010B590F821100022022905D00421816373
:1004E00080F82020012010BD01680B6823F00E0366
:1004F0000B6001680B6823F001030B6090F840303B
:10050000C46B012101FA03F3636080F8211080F8C5
:100510002020104610BD000010B590F821100024D6
:10052000022903D00421816301243DE001680A68A7
:1005300022F00E020A6001680A6822F001020A60D5
:100540001A4A0168914201D1012121E0174A14326F
:10055000914201D110211BE0144A2832914201D16D
:10056000891515E0114A3C32914201D189140FE0FE
:100570000E4A5032914202D14FF4803108E00B4ACA
:100580006432914202D14FF4801101E04FF080714A
:10059000064A083A5160012180F82110002180F8B4
:1005A0002010416B01B18847204610BD0800024071
:1005B00070B5044600F010F90546601C02D00448EE
:1005C0000078044400F008F9401BA042FAD370BD43
:1005D000180000202DE9F84FDFF8B8910024A9F1A8
:1005E000040B23460F2709F1040AABF1040EC9E0FE
:1005F0000125A5402A40AA427DD1674ED1F804C00A
:10060000ACEB0608B44532D014DCBCF1030F3AD091
:1006100009DCBCF1000F2AD0BCF1010F1CD0BCF1E9
:10062000020F31D11DE0BCF1110F17D0BCF1120F38
:100630002AD119E0B8F5881F19D006DCB8F5803F3B
:1006400015D0B8F5801F1FD111E0B8F5001F0ED0EE
:10065000B8F5041F18D10AE0CB6815E0CB681B1D64
:1006600012E0CB6808330FE0CB680C330CE08B68EA
:100670002BB1012B4FF0080303D0456104E00423A4
:1006800002E0056100E00023FF2A01D8064601E0F0
:1006900000F104064FEA840501D9A5F12005D6F83A
:1006A000008007FA05FC28EA0C0803FA05F548EA79
:1006B0000508C6F800804D68ED0062D5374DAE697B
:1006C00046F00106AE61AD6924F0030605F00105B0
:1006D0000095334D06EB050CDCF80850A607360FE5
:1006E00007FA06F825EA0805DFF8B880404503D187
:1006F0004FF0000817E044E0DFF8AC80404502D13D
:100700004FF001080FE0DFF8A480404502D14FF020
:10071000020808E0DFF89880404502D14FF0030856
:1007200001E04FF0040808FA06F848EA0508CCF89A
:1007300008804D68D9F80060ED024D4601D516439A
:1007400000E096432E604D68DAF80060AD02554631
:1007500001D5164300E096432E604D68DBF800603B
:10076000AD035D4601D5164300E096432E604D680B
:10077000DEF80060ED03754601D5164300E09643B0
:100780002E60641C0D682A46E5407FF431AFBDE859
:10079000F88F000008040140000011100010024012
:1007A0000000014000080140000C01400010014021
:1007B000001401408068084000D001207047C268E2
:1007C00021EA02030A4043EA0241016170470AB18B
:1007D000016170470904FBE7014880687047000029
:1007E0001800002002488168027811448160704737
:1007F00018000020074810B5016841F010010160A1
:10080000032000F0A7F80F2000F006F800F050F8E1
:10081000002010BD0020024030B505461F4887B0BB
:10082000C16941F00401C161C06906A900F004007A
:10083000009001A800F036F90498B0B100F052F928
:1008400040001749174AB0FBF1F11748491E0260F2
:10085000416040F2E7320021C0E9032181608161FB
:1008600000F018FB040003D015E000F03BF9E8E7C6
:100870000D4800F03DFB04000DD11E2000F03CF8B7
:10088000102D07D2002229461E2000F043F8074809
:10089000056000E0012407B0204630BD0010024092
:1008A00040420F0000080040181300201C000020E8
:1008B0000F4808B5816941F001018161816901F04A
:1008C00001010091C16941F08051C161C0690022FC
:1008D00000F0805000900F21901E00F01BF805489A
:1008E000416821F0E06141F00071416008BD000005
:1008F0000010024000000140002809DB00F01F0248
:10090000012191404009800000F1E020C0F8001171
:1009100070470000F0B40E4B1B680C46C3F3022373
:10092000C3F10705042D00D90425191D072901D29B
:10093000002300E0DB1E012606FA05F1491E2140D6
:1009400099409E40761E16403143F0BC01F05DB9DF
:100950000CED00E0064900F0070208684FF6FF03BF
:10096000184040EA0220034A104308607047000024
:100970000CED00E00000FA052DE9F0470F460500F8
:1009800061D0434E306800F00700B84209D23068A9
:1009900020F0070038433060306800F00700B842AC
:1009A00051D128683B4C810712D5400703D56068B8
:1009B00040F4E06060602878000703D5606840F488
:1009C000605060606068A96820F0F00008436060D3
:1009D0002878C00728D06868012810D0216802282C
:1009E00010D0890700292EDA616821F00301014344
:1009F0006160FFF7F1FE804641F288390DE0216821
:100A00008903EFE78901EDE7FFF7E6FEA0EB0801B8
:100A1000494502D90320BDE8F0876068696800F0A5
:100A20000C00B0EB810FEFD1306800F00700B84246
:100A30000BD9306820F0070038433060306800F090
:100A40000700B84201D00120E5E72878400705D526
:100A50006068E96820F4E060084360602878000777
:100A600006D56068296920F4605040EAC1006060E2
:100A700000F058F86168084AC1F30311515CC8409E
:100A80000649086006480068FFF7C6FE0020C2E776
:100A90000020024000100240BA3700082400002065
:100AA0001C0000200F2202600C4A536803F003036D
:100AB0004360536803F0F0038360536803F4E0631A
:100AC000C36052684FF4E06303EAD2020261044853
:100AD000006800F007000860704700000010024046
:100AE000002002400448054900684968044AC1F3EF
:100AF0000221515CC84070472400002000100240D1
:100B0000CA3700080448054900684968044AC1F327
:100B1000C221515CC84070472400002000100240F0
:100B2000CA3700080E4A51680E4801F00C03042B26
:100B300011D0082B0FD10C48C1F38343C903C05C0B
:100B40000AD55168084AC1F34041921E515C054ADA
:100B50005043B0FBF1F07047044948437047000030
:100B60000010024000127A00AA37000800093D0078
:100B70002DE9F84F040070D02078C04DC00749D04F
:100B80006868C0F38100012807D06868C0F381005D
:100B9000022809D16868C00306D52868800339D5C2
:100BA00060680028E7D035E06068B0F5803F0BD082
:100BB00010B1B0F5A02F11D0286820F48030286043
:100BC000286820F4802002E0286840F48030286003
:100BD000606890B1FFF700FE06460AE0286840F41E
:100BE00080202860F0E700BFFFF7F6FD801B642837
:100BF00073D828688003F7D50CE0FFF7EDFD0646B3
:100C000005E000BFFFF7E8FD801B6428F0D82868E6
:100C10008003F7D420789A4E80074FF001094FF0F7
:100C2000000839D5686810F00C0F07D06868C0F369
:100C30008100022809D16868C00306D428688007AB
:100C400014D52069012808D110E02069B0B1C6F898
:100C50000090FFF7C1FD074605E00AE1FFF7BCFD84
:100C6000C01B0228C4D828688007F7D528686169A6
:100C700020F0F80040EAC10028600DE0C6F80080CE
:100C8000FFF7AAFD074604E0FFF7A6FDC01B0228F8
:100C900023D828688007F7D4207800072CD5794816
:100CA000A169D9B1C0F80090FFF796FD074604E0AE
:100CB000FFF792FDC01B02280FD8686A8007F7D59E
:100CC00071484FF4FA510068B0FBF1F0009000BF9A
:100CD0000098411E0091FAD20EE080E0C0F800803A
:100CE000FFF77AFD074604E0FFF776FDC01B0228F8
:100CF00075D8686A8007F7D42078400760D5E8691E
:100D00000027C00008D4E86940F08050E861E86935
:100D1000012700F0805000905C480168C90513D499
:100D20000168834641F480710160FFF755FD8246FA
:100D300006E000BFFFF750FDA0EB0A0064284ED884
:100D4000DBF80000C005F5D5E06801280AD008B13D
:100D5000052813D0286A20F001002862286A20F0B4
:100D6000040002E0286A40F001002862E06841F2D5
:100D7000883B98B1FFF730FD82460BE0286A40F0CF
:100D800004002862EEE700BFFFF726FDA0EB0A0192
:100D900059455AD8286A8007F6D50CE0FFF71CFDA4
:100DA000824605E0FFF718FDA0EB0A0159454CD833
:100DB000286A8007F6D41FB1E86920F08050E86106
:100DC000E06988B36968C1F38101022944D002282F
:100DD000C6F8608004D0FFF7FFFC044638E034E03A
:100DE000FFF7FAFC074604E0FFF7F6FCC01B0228F9
:100DF0002BD828688001F7D4206AB0F5803F05D150
:100E00006868A16820F4003008436860D4E90801EC
:100E10000843696821F4741108436860C6F860905B
:100E2000FFF7DAFC044606E025E000BFFFF7D4FC3C
:100E3000001B022809D828688001F7D51BE000BFF5
:100E4000FFF7CAFC001B022802D90320BDE8F88F77
:100E500028688001F4D40EE00128F7D06868226A7F
:100E600000F48031914204D1616A00F4701088422C
:100E700001D00120EAE70020E8E70000001002406E
:100E800000004242800442422400002000700040E2
:100E90007047704710B5040003D094F83D0010B1BE
:100EA00007E0012010BD002084F83C00204600F03F
:100EB0001EF8022084F83D00211D206800F076FD18
:100EC000012084F8460084F83E0084F83F0084F84E
:100ED000400084F8410084F8420084F8430084F81C
:100EE000440084F8450084F83D00002010BD7047A0
:100EF00090F83D10012901D001207047022180F8AF
:100F00003D100168CA6842F00102CA6000680B49DE
:100F1000884208D0B0F1804F05D00949884202D0FC
:100F20000849884204D1816801F00701062903D0ED
:100F3000016841F00101016000207047002C014070
:100F4000000400400008004070472DE9F0410446CD
:100F50000068C66805694FF00007A90713D5B107F7
:100F600011D5F91E01610120207720688069800772
:100F7000204602D0FFF7E8FF04E000F07EF82046AC
:100F800000F07CF82777680716D5700714D521681C
:100F90006FF004000861022020772068806910F457
:100FA000407F204602D0FFF7CFFF04E000F065F855
:100FB000204600F063F82777280715D5300713D5AA
:100FC00021686FF008000861042020772068C0695C
:100FD0008007204602D0FFF7B7FF04E000F04DF88D
:100FE000204600F04BF82777E80616D5F00614D512
:100FF00021686FF010000861082020772068C06920
:1010000010F4407F204602D0FFF79EFF04E000F07E
:1010100034F8204600F032F82777E80708D0F007C8
:1010200006D021686FF001000861204600F028F822
:10103000280608D5300606D521686FF080000861C3
:101040002046FFF725FF680608D5700606D52168FB
:101050006FF040000861204600F01CF8A8060AD591
:10106000B00608D521686FF0200008612046BDE871
:10107000F041FFF70EBFBDE8F081704770470000F8
:1010800000680349884201D1FFF7ACBB70470000FC
:10109000000800407047704770470000F8B50168CD
:1010A00004460868CA684B6910F00F0F4FF000053E
:1010B00059D003F0010602F49077374365D0C10799
:1010C00005D0D10503D5616C41F001016164410790
:1010D00005D5D90703D0616C41F002016164810735
:1010E00005D5D90703D0616C41F0040161640107A3
:1010F00007D502F02001314303D0616C41F00801B3
:101100006164616C00293AD0800604D5900602D54E
:10111000204600F0B6FC20684069616CC0F3801086
:10112000090700D460B3204600F084FC20684069C1
:10113000400621D52068143050E8001F21F04001FE
:1011400040E80012002AF5D1E06BA8B16D49416377
:10115000E06BFFF7E1F9002811D0E06B416B01B0C3
:10116000BDE8F040084783060FD593060DD520460D
:10117000BDE8F84000F085BC2046FFF78DFFF8BDC4
:101180002046FFF789FF6564F8BD266B2023012EFA
:101190007CD1C6067AD5D60678D50868486800900E
:1011A00048694FF00206400640D5E16B0868406888
:1011B0000004000CE8D0A28D8242E5D9E085886960
:1011C00020282DD020680C3050E8001F21F48071B9
:1011D00040E80012002AF5D12068143050E8001FC2
:1011E00021F0010140E80012002AF5D120681430F6
:1011F00050E8001F21F0400140E80012002AF5D11C
:1012000084F84230256320680C3050E8001F21F03C
:10121000100140E80012002AF5D1E06BFFF758F901
:101220006663A08DE18D401A81B22AE0A08DE18D28
:10123000401A81B2E08D0028A6D00029A4D02268EF
:101240000C3252E8000F20F4907042E80007002FA3
:10125000F5D12068143050E8002F22F0010240E858
:101260000027002FF5D184F84230256320680C3028
:1012700050E8002F22F0100240E80023002BF5D1A7
:1012800066632046FFF707FFF8BDFFE705062BD58D
:10129000150629D594F841002128F5D1A068B0F5AC
:1012A000805F01D12069B0B1206A411C21622168B0
:1012B00000784860E08C401E0004000CE084E3D11C
:1012C0002068C16821F08001C1602068C16841F0D8
:1012D0004001C160D8E7206A0088C0F30800486078
:1012E000206A801C2062E5E74006CDD55006CBD5AC
:1012F000CA68204622F04002CA6084F8413000F0FB
:1013000076F8C1E7251A000870B5040004D094F8F7
:101310004100002510B106E0012070BD84F8405066
:10132000204600F023F8242084F841002068C1689A
:1013300021F40051C160204600F004FC20680169DE
:1013400021F4904101612068416921F02A01416145
:101350002068C16841F40051C1606564202084F8B0
:10136000410084F842006563002070BD30B585B04F
:101370000024009401940294039400681849884260
:101380002CD11848816941F480418161816901F45F
:1013900080410491816941F0040181618069124DAD
:1013A00000F0040004904FF40070009002200190BF
:1013B0000320039069462846FFF70CF92815CDE96C
:1013C0000004694628460294FFF704F9002205212B
:1013D0002520FFF79FFA2520FFF78EFA05B030BDD4
:1013E000003801400010024000080140704770477B
:1013F000FEE7000010B50E4C012280212046FFF7C9
:10140000E6F9012240212046FFF7E1F900F046F815
:10141000002280212046FFF7DAF900F03FF8002291
:1014200040212046FFF7D3F9BDE8104000F036B860
:10143000000C014010B50E4C002240212046FFF761
:10144000C6F9002280212046FFF7C1F900F026F8F6
:10145000012240212046FFF7BAF900F01FF80122CF
:1014600080212046FFF7B3F9BDE8104000F016B820
:10147000000C014010B5084C012240212046FFF726
:10148000A6F900F00BF8002240212046FFF79FF953
:10149000BDE8104000F002B8000C01400320401EDF
:1014A000C0B2FCD27047000070B586B0002422485C
:1014B0000094019402940394816941F020018161B8
:1014C000816901F020010491816941F00801816185
:1014D000816901F008010491816941F00401816191
:1014E0008069164E00F00400049001224FF443512D
:1014F0003046FFF76CF940F6010001258DE8310018
:1015000069463046FFF766F84FF44050CDE90005D4
:101510000220CDE9024069463046FFF75BF8C02063
:1015200000901120CDE90104032003906946304664
:10153000FFF750F806B070BD00100240000C0140EB
:10154000FEE7FEE730B40021084B0A465FF00000DA
:1015500003EBC004401CC0B262548028F8D3491C7D
:10156000C9B20829F2D330BC00F09EB87C25002017
:1015700030B5CC0801F0070301259D40EBB2064DC4
:1015800005EBC005C808285C0AB1184302E063EA0D
:101590000000C043285530BD7C2500201FB5C82061
:1015A000FFF706F8C0200090112001900120029062
:1015B0000320039069463748FFF70CF80021AE205E
:1015C00000F084F90021084600F080F90021102085
:1015D00000F07CF90021402000F078F90021812002
:1015E00000F074F90021CF2000F070F90021A12053
:1015F00000F06CF90021C82000F068F90021A62055
:1016000000F064F90021A82000F060F900213F20DB
:1016100000F05CF90021D32000F058F900210846C1
:1016200000F054F90021D52000F050F9002180206D
:1016300000F04CF90021D92000F048F90021F120F8
:1016400000F044F90021DA2000F040F900211220D6
:1016500000F03CF90021DB2000F038F900213020B7
:1016600000F034F90021202000F030F900210220A0
:1016700000F02CF900218D2000F028F90021142021
:1016800000F024F9FFF75EFF0021AF2000F01EF903
:101690001FBD0000000C01400246012000E0504345
:1016A000491EC9B2FBD2704770B5184E002400BF66
:1016B00004F1B000C0B2002100F008F900210220BE
:1016C00000F004F90021102000F000F9FFF792FE6D
:1016D000782000F01DF8FFF7CDFE402000F018F84C
:1016E000FFF7C8FE5FF0000506EBC500005D00F0E7
:1016F0000FF8FFF7BFFE6D1CEDB2802DF4D3FFF79E
:1017000099FE641CE4B2082CD2D370BD7C25002065
:1017100070B50F4E05460024280601D5012200E0D1
:10172000002280213046FFF752F801224021304646
:10173000FFF74DF8FFF7B2FE002240213046FFF7D9
:1017400046F86806641C050EE4B2082CE4D370BDAC
:10175000000C01402DE9FC5F1C460E4682468B467C
:101760000190082B0DD0600700D0012000EBD400C1
:1017700061084843C0B28146203AD0B200900020B0
:101780004BE00620F7E7082C13D00C2C18D0102CB7
:101790001BD0182C4DD10098274900EBC00000BF8A
:1017A00001EB8001002711F80850E80712D00C9ACD
:1017B00013E00098214900EB400001EB4001F1E704
:1017C00000981F4900EB4000EAE71E49009801EB32
:1017D0000011E7E70C9850B3002231465046FFF75E
:1017E000C7FE761C7F1C6D08FFB2F6B2082FDCD353
:1017F0000AF1010000F0FF0A082C0AD00199AAEBB7
:101800000100B0EB540F04D10BF108008A4600F040
:10181000FF0B08F101005E46C0B280464845B2D3D6
:101820000D98002805D0BDE8FC5FFFF73DBF012201
:10183000D3E7BDE8FC9F00005E440008D2370008F3
:10184000FA3900086E3E00082DE9FF4F83B00025ED
:10185000DDE9106A1F4693468146082E00D1022515
:101860000024A0461DE0381B401EC1B20A20FFF72D
:1018700013FFBBFBF0F00A21B0FBF1F201FB1200F9
:10188000C8B13030C2B205EB560101FB0490C0B2C2
:101890004FEA0603CDE900A80499FFF75BFF641C3B
:1018A000E4B2BC42DFD3129800280CD007B0BDE8E8
:1018B000F04FFFF7F9BE05EB560101FB0490C0B2F3
:1018C00033463022E6E707B0BDE8F08F70B50C462E
:1018D0000546FFF78FFD7820FFF71AFFFFF7CAFDD7
:1018E0000CB1402000E00020FFF712FFFFF7C2FD1F
:1018F0002846FFF70DFFFFF7BDFDBDE87040FFF77D
:1019000099BD0000064D4FF480544FF47A7621467D
:101910002846FEF754FF304600F0DCF9F7E70000F8
:10192000000C014010B54FF0E020006901F074FD9B
:10193000012803D0BDE8104001F0A2BA10BD30B5B7
:101940008FB028216846FEF7D8FC14210AA8FEF7BC
:10195000D4FC01210804CDE90010002402940225E2
:101960000491CDE907504FF4E01009906846FFF765
:10197000FFF808B172B6FEE70F20CDE90A054FF473
:101980008060CDE90C4002210AA80E94FEF7F4FF16
:10199000002801D072B6FEE70FB030BD70470000DE
:1019A0000148FFF7D2BA000018130020F0B5026812
:1019B000194B1A4C1A4D4FF08047984205D0B84247
:1019C00003D0A04201D0A84203D122F070064A6899
:1019D0003243984205D0B84203D0A04201D0A84279
:1019E00003D122F44074CA6822434C6922F0800279
:1019F000224302608A68C2620A688262984201D108
:101A000009690163012141610169C90703D00169C5
:101A100021F001010161F0BD002C014000040040F3
:101A20000008004010B5406A0021C185C184FFF75D
:101A300033FB10BD01680C3151E8002F22F4907285
:101A400041E80023002BF5D10168143151E8002F43
:101A500022F0010241E80023002BF5D1016B01299E
:101A600009D101680C3151E8002F22F0100241E841
:101A70000023002BF5D1202180F8421000210163C2
:101A8000704708B590F84210222901D0022008BD05
:101A900082684FF480539A4201D1016921B1816A71
:101AA0009A421BD04AB10AE00268816A5268C2F3C6
:101AB00008020A80816A891C08E0026972B1026822
:101AC000526802F07F020A70816A491C8162C18DEE
:101AD000491E0904090CC18503D01BE00268526845
:101AE000F1E70168CA6822F02002CA600168CA688A
:101AF00022F48072CA6001684A6922F001024A61D8
:101B0000202180F8421000214163026B012A03D09A
:101B1000FFF76CFC002008BD016301680C3151E83F
:101B2000002F22F0100241E80023002BF5D10168BC
:101B30000A68D20602D50A6849680091818DFFF7CC
:101B4000AAFAE7E770B5044600680169E26821F483
:101B50004051114301612169A0680843616908434C
:101B60002168CA6841F20C639A430243CA60206844
:101B70004169A26921F44071114341611E49206805
:101B8000884202D1FEF7BEFF01E0FEF7ABFF00EB9B
:101B9000C00101EB0012606864218000B2FBF0F329
:101BA000B3FBF1F36FF018067343B2FBF0F5B2FB31
:101BB000F0F605EB8305322303EB0515B5FBF1F5D4
:101BC000B6FBF1F605F0F00505EB0615B2FBF0F6F5
:101BD000B2FBF0F0B0FBF1F06FF01802504306EBEF
:101BE000800003EB0010B0FBF1F0216800F00F0063
:101BF0002844886070BD0000003801400148FFF7AC
:101C00004DBA0000D0120020FEE70907090E002897
:101C100004DB00F1E02080F80014704700F00F00B2
:101C200000F1E02080F8141D704700000EB5094A4D
:101C30000120A2F500718DE807000023802206A193
:101C4000084801F0BEFB08494860BDE80E4000F0BE
:101C5000F7BF0000A80200207461736B5F737461AA
:101C6000727400006527000800000020FEF7C2FD26
:101C7000FFF765FEFFF718FC124811490C220160BE
:101C80004FF4E131416000218160C160C0E904127C
:101C90008161C161FFF738FB08B172B6FEE7FFF75B
:101CA0007DFC00F025F8084A0021084800F04EF8B5
:101CB00007490860FFF7BAFF00F02CF8FEE70000C4
:101CC00000380140D01200208437000805190008B0
:101CD0001400002010B5EFF3058111B16FF0050479
:101CE00003E0002408B100F0BDFE204610BD000056
:101CF000EFF3058010B16FF00500704704480168EC
:101D000011B14FF0FF307047012101600020704792
:101D10007800002010B5EFF3058010B16FF00500DA
:101D200010BD08480168012902D04FF0FF3010BDF6
:101D3000054A002182F8141D0221016000F080FF95
:101D4000002010BD780000200BE000E02DE9FF41ED
:101D50004FEA01034FF00005EFF30581039549BBFE
:101D600040B38027182100244AB3166806B13446D0
:101D700096691EB13146761E382E02D21679F607C4
:101D800003D0002004B0BDE8F081566906B1B70861
:101D9000D2F808C0BCF1000F0DD0D5685C2D18D367
:101DA00012693AB136B18DE806103A46214601F083
:101DB00008FB03900DE0D6685EB912694AB903AA20
:101DC000CDE90012BAB2214601F0CEFA012800D0C6
:101DD00003950398D6E700002DE9F041134C0F4618
:101DE0000546E6682068001D00F008FD681C07D164
:101DF00037B12168BDE8F0410D48091D00F04EBD26
:101E000020683544B5424560216805D2A06BBDE825
:101E1000F041091D00F02ABD606B091D00F026FD90
:101E2000A06A854200D2A562BDE8F08128000020AA
:101E3000501800202DE9F041054600F03BFD2D4CE7
:101E4000A068401CA06020682B4F10B1606930B3BF
:101E50002BE02560A068012827D1002606EB86002C
:101E600007EB800000F0F4FC761C382EF6D32348F4
:101E700000F0EEFC2148143000F0EAFC1F48283046
:101E800000F0E6FC1D483C3000F0E2FC1B485030FE
:101E900000F0DEFC194860631430A06305E02068A0
:101EA000E96AC06A884200D82560606A401C6062A6
:101EB0006864E86A2169884200D9206100EB8000EB
:101EC00007EB8000291D00F0E9FC00F013FD6069BC
:101ED00000280CD02068E96AC06A884207D2084905
:101EE0004FF080500860BFF34F8FBFF36F8FBDE896
:101EF000F081000028000020A0130020001800201E
:101F000004ED00E038B500F0D5FC104C2068C8B9ED
:101F10000F4800F09DFC0E48143000F099FC0C486E
:101F2000E060143020610A4B0020F03B009003F188
:101F3000500210210A2000F0B9FF206010B105A165
:101F400000F05AFDBDE8384000F0D4BC6400002029
:101F500054190020546D72510000000030B4026C1E
:101F60000B46002A0BD0C1681144C1608468A142AD
:101F700001D30168C16030BC1846FEF771B930BCAE
:101F800070472DE9F041856B174604460026026C28
:101F900082B1C7B1E068FEF763F9E168206C091A05
:101FA000E1602268914202D2A168081AE060022F23
:101FB00016D017E02068A8B9A06801F0A5FA064677
:101FC0000020A0600EE06068FEF74AF9216C6068AE
:101FD00008446060A168884204D32068606001E022
:101FE00005B16D1E6D1CA5633046BDE8F08110B5CE
:101FF000044690F8590058B101280CD002280FD09F
:10200000502080F31188BFF34F8FBFF36F8FFEE72F
:10201000206B00F083FC2046BDE8104000F07EBC41
:1020200010BD000010484FF44061420706D0C01DAB
:102030000D4920F00700411AC1F540610B4A002309
:102040000144C2E900030839183A21F00701116080
:102050004B600B600B1AC0E9001393604FF0004017
:1020600053605061704700007C19002094000020EC
:10207000144E154CA6F29C474FF08058DFF84C9058
:1020800012E000BF00F016FCF068C568281D00F0E3
:10209000B5FBA068401EA0606068401E606000F054
:1020A00029FC2846FFF7A3FF60680028EAD13868BA
:1020B0000128F9D9C9F80080BFF34F8FBFF36F8FA4
:1020C000F2E700003C1800202800002004ED00E0AA
:1020D00070B51D46049C51B1C4F80020C4E90F013D
:1020E0000121204600F016FF84F84C5070BD24609A
:1020F000F4E700002DE9F05F8846DDE90B94154612
:10210000834691009A460A9EA522206BFEF7EDF8C1
:102110006FF00301206B01EB8501084420F00707F5
:10212000780707D0502080F31188BFF34F8FBFF39B
:102130006F8FFEE70025B8F1000F0FD05FF00000B1
:10214000221818F8001082F8341018F8001011B195
:10215000401C1028F4D384F8435001E084F8345034
:10216000382E00D33726E662C4E91365201D00F03F
:102170007AFB04F1180000F076FB2461C6F1380008
:102180006462A061656584F85850524659463846E5
:1021900000F074FA2060B9F1000F01D0C9F80040D6
:1021A000BDE8F09F30B5114900E011460A6882424F
:1021B000FBD34B685C18844203D1406818444860E4
:1021C000084643681C18944209D1084C183C2468FE
:1021D000A24209D052681A4442600A68126802603A
:1021E000814200D0086030BD0460F9E7940000200F
:1021F00070B5002441600B4D0061914206D8D11AA0
:102200008269914206D2011D286907E09A4203D2F1
:10221000994201D3012403E0011DE86800F026FB88
:10222000204670BD6400002010B5044600F042FB5B
:10223000A06B28B15FF0000400F05CFB204610BDED
:102240000124F9E730B589B03C4D6EE004980028D0
:1022500006DADDE90601059A90470498002864DB58
:10226000069C606910B1201D00F0C8FA03A800F0B8
:10227000D7F8024604980A2857D2DFE800F005058F
:10228000052D334A05052D3394F8280040F0010050
:1022900084F828000599A069059B01442046FFF7B2
:1022A000A7FF68B3216A2046884794F828004007B2
:1022B0003BD5002000900598A169002342181946DB
:1022C000204601F02BFAD8B9502080F31188BFF3D3
:1022D0004F8FBFF36F8FFEE714F8280F20F0010037
:1022E000207022E094F8280040F0010084F82800D3
:1022F0000598A06128B1811813462046FFF778FFA2
:1023000013E0502080F31188BFF34F8FBFF36F8F1E
:10231000FEE794F82800810703D4204600F0FEFA77
:1023200003E020F0010084F82800002204A92868B6
:1023300000F044FF002889D109B030BD64000020BE
:102340002DE9FC410F46054600F00CFD01A800F008
:1023500067F80446019818B101F04EF9BDE8FC8118
:10236000254EAFB130690068D0B30027291B3A462B
:10237000306800F055FB01F03FF90028EED11F490D
:102380004FF080500860BFF34F8FBFF36F8FE5E7CA
:10239000A542EBD801F030F9F0682746C068C46860
:1023A000201D00F02BFA94F82800410719D5A069E8
:1023B0002B4641193A462046FFF71AFFA8B10020E4
:1023C0000346014600902A46204601F0A7F960B96D
:1023D000502080F31188BFF34F8FBFF36F8FFEE75C
:1023E00007E020F0010084F82800216A2046884791
:1023F000B4E70127BAE700006400002004ED00E024
:102400000648416B096829B1416BC968C9684968C8
:10241000816270474FF0FF31FAE70000280000208A
:1024200070B5054601F006F8064E0446B0688442D1
:1024300003D200F009F8012000E0002028602046C7
:10244000B46070BD64000020F8B5194D20E0C0688C
:10245000C4680668201D00F0D1F9216A204688472B
:1024600094F82800400713D5A0693044B04206D93B
:1024700024616060211DE86800F0F8F908E00020A0
:102480000346014600903246204601F047F938B134
:10249000E86801680029DAD12969C5E90310F8BDA7
:1024A000502080F31188BFF34F8FBFF36F8FFEE78B
:1024B0006400002008484068401C4FF0500080F342
:1024C000118804D0BFF34F8FBFF36F8FFEE7BFF3C8
:1024D0004F8FBFF36F8FFEE79C000020002150B1AB
:1024E0000A4B42699A420FD1806AA3F128029042B6
:1024F0000AD040B108E0502080F31188BFF34F8F1D
:10250000BFF36F8FFEE70121084670475018002087
:10251000074CE068016841B1C0680021D0F80000B4
:10252000FFF70EFFFFF78EFEF3E701210020F7E72C
:10253000640000202DE9F041044600F0BBF994F955
:10254000455004F1240609E0606A48B1304601F0C4
:102550001BF808B100F0FCFA6D1E6DB2002DF3DC23
:102560004FF0FF3684F8456000F0C4F900F0A2F99E
:1025700094F9445004F1100709E0206948B1384645
:1025800001F002F808B100F0E3FA6D1E6DB2002D03
:10259000F3DC84F84460BDE8F04100F0ABB9000022
:1025A0002DE9F0410546002700F0DCFB324E306893
:1025B00008B9FFF737FD706905424ED1C5B308353C
:1025C00068070ED005F00700C0F108000544680751
:1025D00007D0502080F31188BFF34F8FBFF36F8F68
:1025E000FEE72DB37068854237D82348183001467E
:1025F0000C6801E020460C466168A94202D22168BD
:102600000029F7D131688C4227D007682168016022
:1026100060680837411B10290FD96019420708D09C
:10262000502080F31188BFF34F8FBFF36F8FFEE709
:1026300013E041606560FFF7B5FD61687068401A9E
:102640007060B268904200D2B060706901430020AF
:10265000C4E90001F068401CF06000F0CDFF78078D
:1026600007D0502080F31188BFF34F8FBFF36F8FD7
:10267000FEE73846BDE8F0817C00002010B5031F5E
:102680004FF080741C601B1F21F001011960191F9D
:10269000024B0B60143940380A6010BDB5240008A5
:1026A000064D4FF400544FF4FA6621462846FEF7D3
:1026B00086F8304600F0D6F9F7E70000000C01403C
:1026C000064D4FF480544FF4487621462846FEF7D5
:1026D00076F8304600F0C6F9F7E70000000C01403C
:1026E0000EB51F4C5FF00105FDF7C2FE2178884250
:1026F0001BD0FDF7BDFE2070012804D0022806D0B3
:10270000032812D107E0A06800F0DEFA0DE0A0680F
:1027100000F058FA09E0617835EA0100607002D0F3
:1027200000F020FB01E000F067FF607818B10A209C
:10273000FDF73EFFD8E7A078401CA070FEF702FF2F
:102740001020CDE90005029500210323A278084658
:10275000FFF77AF84FF4C87000F084F9C4E700007E
:10276000000000203EB500F0A5F8174A0220A2F5AF
:1027700080618DE80700C201002314A1154800F014
:1027800020FE154C154A0023A060A2F5007103201D
:102790008DE80700802212A1134800F012FE134AB0
:1027A000E060A2F5007104208DE80700002380227C
:1027B0000FA1114800F005FE206100F09BF8BDE874
:1027C0003E40002000F074B9040700207461736B70
:1027D00031000000A1260008000000206009002050
:1027E0007461736B32000000C1260008BC0B00202E
:1027F0007461736B33000000E1260008D0E90132F8
:1028000001699A60D0E901235A604A68824201D185
:1028100082684A60002202610868401E08600868F9
:1028200070470000034B0360A3F500700860802030
:1028300010607047180E0020044B0360A3F5806001
:1028400008604FF480701060704700007412002020
:1028500000F108014FF0FF32C0E90112C1600161CF
:1028600000210160704700210161704730B50B689D
:102870005A1C02D000F1080202E0026904E022467C
:10288000546825689D42FAD953684B6099608A6004
:10289000516008610168491C016030BD42684A60AE
:1028A00093688B6093685960916008610168491C66
:1028B00001607047502080F31188BFF34F8FBFF342
:1028C0006F8F0A494868401C486001280CD10848AD
:1028D000006810F0FF0F07D0502080F31188BFF37D
:1028E0004F8FBFF36F8FFEE7704700009C00002002
:1028F00004ED00E00849486828B1401E486001D155
:1029000080F311887047502080F31188BFF34F8FF8
:10291000BFF36F8FFEE700009C00002070B5002819
:102920002AD0164DA0F1080460686969084207D1F1
:10293000502080F31188BFF34F8FBFF36F8FFEE7F6
:1029400022683AB1502080F31188BFF34F8FBFF354
:102950006F8FFEE78843606000F004FA6068696882
:10296000084468602046FFF71DFC2869401C286168
:10297000BDE8704000F040BE70BD00007C0000204B
:102980004FF0E02000210161816105494FF47A7226
:102990000968B1FBF2F1491E4161072101617047ED
:1029A0002400002010B5FDF737FC114910280ED384
:1029B00000F1E02090F8F0030A78904207D250200E
:1029C00080F31188BFF34F8FBFF36F8FFEE7094885
:1029D0000068896800F4E060884207D9502080F3DD
:1029E0001188BFF34F8FBFF36F8FFEE710BD00005C
:1029F0009C0000200CED00E010B5084B002200BF49
:102A000053F832401CB1521C082AF9D310BD43F8C8
:102A1000321003EBC201486010BD000060130020BB
:102A200070B515460E460446FFF744FF94F944106E
:102A30000020491C01D184F8440094F94510491C38
:102A400001D184F84500FFF755FFA06B28B92A464D
:102A5000314604F1240000F099F82046BDE87040AA
:102A6000FFF768BD10B5020014D00F48006B38B1F5
:102A7000502080F31188BFF34F8FBFF36F8FFEE7B5
:102A800000F070F900211046FFF7A6F900F0B4FD40
:102A9000002807D105494FF080500860BFF34F8FE1
:102AA000BFF36F8F10BD00002800002004ED00E090
:102AB00070B50546FFF7FEFE1E4C05B92568281DBA
:102AC000FFF79CFEA86A18B105F11800FFF796FE03
:102AD000606A401C60622068854207D1291D164843
:102AE000FFF7DCFE6068401C606007E0A068401EE5
:102AF000A0602846FFF77BFAFFF782FCFFF7FAFE9B
:102B00006069002814D02068854211D1206B38B14B
:102B1000502080F31188BFF34F8FBFF36F8FFEE714
:102B200006494FF080500860BFF34F8FBFF36F8F9F
:102B300070BD0000280000203C18002004ED00E0DB
:102B400002490A6A0260C968416070472800002093
:102B500001490120C86170472800002010B50C46CB
:102B600050B1094909681831FFF780FE2046BDE8D9
:102B700010400121FFF730B9502080F31188BFF3D6
:102B80004F8FBFF36F8FFEE72800002070B514460B
:102B90000D4668B10A4909681831FFF77FFE0CB18C
:102BA0004FF0FF3521462846BDE87040FFF714B9C5
:102BB000502080F31188BFF34F8FBFF36F8FFEE774
:102BC0002800002070B504002AD01A4D28688442DD
:102BD0002ED0FFF76FFE2046FFF780FCE0B1201DEE
:102BE000FFF70CFEE06A2969884200D92861124982
:102BF00000EB800001EB8000211DFFF74FFEE06A33
:102C00002968C96A884207D30C494FF08050086090
:102C1000BFF34F8FBFF36F8FBDE87040FFF76ABE01
:102C2000502080F31188BFF34F8FBFF36F8FFEE703
:102C300070BD000028000020A013002004ED00E07B
:102C400030B587B00024039405AA04A903A804940E
:102C5000FFF7E8FDDDE903010094CDE90110002351
:102C600015A11748059A00F0ACFB164D0028E86244
:102C70001FD000F023FD012809D0401C19D150209D
:102C800080F31188BFF34F8FBFF36F8FFEE75020A3
:102C900080F31188BFF34F8FBFF36F8F4FF0FF307A
:102CA000A86201206861EC6007B0BDE8304000F028
:102CB00093B807B030BD000049444C450000000007
:102CC000712000082800002070B50446FFF7F2FDCF
:102CD000214D04B92C68201DFFF790FDA06A18B1A2
:102CE00004F11800FFF78AFD211D1C48FFF7D6FDEF
:102CF00094F858000026012801D184F85860FFF7A5
:102D0000F9FD686928B1FFF7D5FDFFF779FBFFF7FB
:102D1000F1FD2868844213D1686990B1286B38B1FD
:102D2000502080F31188BFF34F8FBFF36F8FFEE702
:102D30000B494FF080500860BFF34F8FBFF36F8F88
:102D400070BD06480068A968884201D12E6070BD38
:102D5000BDE8704000F00EB8280000205018002098
:102D600004ED00E00248016B491C0163704700005C
:102D700028000020164810B5016B11B10121C16176
:102D800010BD0021C1610169124A01E0B9B1491EBB
:102D900001EB810352F82330002BF7D001EB8103C4
:102DA00002EB830202F1080453685B685360A3429C
:102DB00001D15B685360DA680260016110BD502088
:102DC00080F31188BFF34F8FBFF36F8FFEE70000D2
:102DD00028000020A01300201CB526490878019087
:102DE000FF20087008788DF800009DF800009DF81D
:102DF000002000F0F000904207D0502080F31188AE
:102E0000BFF34F8FBFF36F8FFEE79DF800001A4CA2
:102E100000F0500020700720A06005E09DF8002021
:102E200052008DF80020401E9DF800201206F5D4B7
:102E3000A060032807D0502080F31188BFF34F8F84
:102E4000BFF36F8FFEE74FF44070A06001980870E9
:102E50000A48016841F470010160016841F0704165
:102E60000160FFF78DFD00206060FDF79FF90020F5
:102E70001CBD000000E400E09C00002020ED00E00C
:102E800010B5502080F31188BFF34F8FBFF36F8FC1
:102E900000F0D6FA18B104494FF0805008600020C5
:102EA00080F3118810BD000004ED00E038B5049DEA
:102EB00018B153B1CAB181B120E0502080F311881C
:102EC000BFF34F8FBFF36F8FFEE7502080F3118861
:102ED000BFF34F8FBFF36F8FFEE7502080F3118851
:102EE000BFF34F8FBFF36F8FFEE739B1502080F3F0
:102EF0001188BFF34F8FBFF36F8FFEE750241C463E
:102F0000012384F846302B460094FFF7E1F8204671
:102F100038BD000070B50D46040025D0FFF7CAFC8F
:102F2000D4E90F20216802FB0011A1600021A163F8
:102F3000216861600A46D4E90F01401E00FB0121AF
:102F4000E16021464FF0FF3001F8440F487004F172
:102F500010008DB1FFF77CFC04F12400FFF778FC32
:102F6000FFF7C8FC012070BD502080F31188BFF32B
:102F70004F8FBFF36F8FFEE721690029F0D000F07B
:102F800003FB0028ECD004494FF080500860BFF3E9
:102F90004F8FBFF36F8FE3E704ED00E02DE9FF47AC
:102FA00082B01D468A464FF00008040003D0BAF1F3
:102FB000000F08D011E0502080F31188BFF34F8F2D
:102FC000BFF36F8FFEE7206C38B1502080F311887B
:102FD000BFF34F8FBFF36F8FFEE7022D0AD1E06B77
:102FE000012807D0502080F31188BFF34F8FBFF323
:102FF0006F8FFEE700F010FA3F4F4FF000094FF0DF
:10300000805648B9049838B1502080F31188BFF336
:103010004F8FBFF36F8FFEE7FFF74CFCA06BE16BA8
:10302000884207D3022D05D00498D0B1B8F1000F23
:103030001AD01EE02A4651462046FEF7A2FF616ADA
:1030400019B104F1240000F09FFA20B13E60BFF3F3
:103050004F8FBFF36F8FFFF74DFC012006B0BDE827
:10306000F087FFF747FC22E06846FFF769FD4FF065
:103070000108FFF73FFCFFF775FEFFF71BFC94F913
:103080004400401C01D184F8449094F94500401C50
:1030900001D184F84590FFF72DFC04A9684600F0A3
:1030A00029F930B12046FFF745FA00F0A5FA0020D3
:1030B000D4E7FFF7FFFBA06BE16B884213D1FFF76A
:1030C00019FC04F110000499FFF748FD2046FFF7B2
:1030D00031FA00F091FA00289ED13E60BFF34F8F85
:1030E000BFF36F8F98E7FFF705FC2046FFF722FA42
:1030F00000F082FA90E7000004ED00E02DE9F047CF
:103100001F4690468946040003D0B9F1000F08D04D
:1031100011E0502080F31188BFF34F8FBFF36F8F02
:10312000FEE7206C38B1502080F31188BFF34F8F39
:10313000BFF36F8FFEE7022F0AD1E06B012807D0A3
:10314000502080F31188BFF34F8FBFF36F8FFEE7DE
:10315000FFF728FC5020EFF3118680F31188BFF3AE
:103160004F8FBFF36F8FA06BE16B884206D3022FA6
:1031700004D0002086F31188BDE8F08794F945500B
:10318000A06B3A4649462046FEF7FBFE681C04D079
:103190006D1C84F845500120ECE7606A0028FAD0E5
:1031A00004F1240000F0F0F90028F4D0B8F1000F89
:1031B000F1D00121C8F80010EDE700002DE9F74734
:1031C000002683B08A46040003D0BAF1000F08D06D
:1031D00011E0502080F31188BFF34F8FBFF36F8F42
:1031E000FEE7206C38B1502080F31188BFF34F8F79
:1031F000BFF36F8FFEE700F00FF9DFF8F4804FF0B8
:1032000000094FF0805748B9059838B1502080F335
:103210001188BFF34F8FBFF36F8FFEE7FFF74AFBB5
:10322000A56BC5B151462046FEF798FE6D1EA563FD
:10323000206950B104F1100000F0A6F928B1C8F8D7
:103240000070BFF34F8FBFF36F8FFFF753FB012069
:1032500006B0BDE8F087059808B11EB106E0FFF79B
:1032600049FB27E06846FFF76BFC0126FFF742FBAE
:10327000FFF778FDFFF71EFB94F94400401C01D1D5
:1032800084F8449094F94500401C01D184F845909D
:10329000FFF730FB05A9684600F02CF8002820460F
:1032A0000AD0FFF747F900F0A7F92046FEF7BCFF68
:1032B0000028B3D00020CBE7FEF7B6FF90B104F1B1
:1032C00024000599FFF74AFC2046FFF733F900F088
:1032D00093F90028A2D1C8F80070BFF34F8FBFF355
:1032E0006F8F9BE72046FFF725F900F085F995E7FA
:1032F00004ED00E02DE9F0410C46050011D0C4B109
:10330000FFF7D8FA174BDA686E682068911B471CE4
:1033100017D02F681B6A9F4219D0964217D80124F4
:1033200010E0502080F31188BFF34F8FBFF36F8FF1
:10333000FEE7502080F31188BFF34F8FBFF36F8FEC
:10334000FEE70024FFF7D6FA2046BDE8F081884268
:1033500005D9401A20602846FFF7F2FBF1E700206C
:103360002060DCE7280000202DE9FF5F8346DDE9CF
:103370000E87994616468A469000FFF711F9050018
:103380001CD05C20FFF70CF9040014D0002025634A
:1033900084F85900CDE90240CDE900874B4632461A
:1033A00051465846FEF7A6FE2046FEF743FD012093
:1033B00004B0BDE8F09F2846FFF7B0FA4FF0FF30A9
:1033C000F6E7F0B585B0DDE90B640A9DA6B1DCB186
:1033D0005C2700972663022684F85960002604AF14
:1033E000CDE90246CDE90057FEF784FE2046FEF700
:1033F00021FD049805B0F0BD502080F31188BFF383
:103400004F8FBFF36F8FFEE7502080F31188BFF31B
:103410004F8FBFF36F8FFEE70548416919B1006B0D
:1034200018B100207047012070470220704700004B
:10343000280000200148C0687047000028000020D4
:103440002DE9F0412E4C0027206B28B1A069401CCB
:10345000A0613846BDE8F081E668761CE66013D1CD
:10346000606B006838B1502080F31188BFF34F8F34
:10347000BFF36F8FFEE7606BA16B6163A063206A8F
:10348000401C2062FEF7BCFFA06ADFF8788086420D
:1034900009D3606B0068A0B1606BC068C5686868DC
:1034A000864211D2A0622068C06A00EB800158F801
:1034B0002100012800D90127E0690028C9D001278F
:1034C000C7E74FF0FF30EDE7281DFFF797F9A86A2F
:1034D00018B105F11800FFF791F9E86A21698842EF
:1034E00000D9206100EB800108EB8100291DFFF766
:1034F000D5F9E86A2168C96A8842CAD30127C8E7B2
:1035000028000020A013002070B504004FF0000137
:1035100033D01B4D2868844207D0502080F3118897
:10352000BFF34F8FBFF36F8FFEE7206D38B1401EA2
:103530002065E36CE26A9A421FD040B11DE0502042
:1035400080F31188BFF34F8FBFF36F8FFEE7201D0D
:10355000FFF754F9E06CE062C0F13800A061E06A66
:103560002969884200D92861064900EB800001EBF7
:103570008000211DFFF792F90121084670BD00006F
:1035800028000020A013002070B5C068C46854B1A2
:1035900004F118000646FFF731F9144D286B50B1BD
:1035A0003146134815E0502080F31188BFF34F8F48
:1035B000BFF36F8FFEE7201DFFF720F9E06A29694E
:1035C000884200D928610B4900EB800001EB8000A4
:1035D000211DFFF763F9E06A2968C96A884202D9A8
:1035E0000120E86170BD002070BD000028000020AF
:1035F00028180020A01300202DE9F0472C4D0024AE
:103600002746286B38B1FFF755F9286B401E286311
:10361000286B40B146E0502080F31188BFF34F8FF4
:10362000BFF36F8FFEE7A968224E0120D1B3A6F544
:10363000916980463068E0B1F068C46804F1180010
:10364000FFF7DCF8201DFFF7D9F8E06A2969884206
:1036500000D9286100EB800109EB8100211DFFF7F3
:103660001DF9E06A2968C96A8842E3D3C5F81C805D
:10367000E0E70CB1FEF7C4FEAC694CB14FEA0806B6
:10368000FFF7DEFE00B1EE61641EF9D10020A861F3
:10369000E86938B10849012738070860BFF34F8F40
:1036A000BFF36F8FFFF726F93846BDE8F0870000BB
:1036B000280000202818002004ED00E010B586B096
:1036C000FEF720FC114C2068B8B100200390049054
:1036D00005AA04A903A8FFF7AFF8DDE9032102203A
:1036E0008DE8070000230AA10B48059AFFF769FE41
:1036F000606010B106B0012010BD502080F3118829
:10370000BFF34F8FBFF36F8FFEE700006400002010
:10371000546D722053766300112500082DE9FF4196
:103720001E46134602000A9D4FF0000016D0144CAE
:103730002768002F0FD0CDE900130292062917DA6F
:10374000FFF76AFE02284FF000030FD000226946FF
:103750002068FFF723FC04B0BDE8F081502080F31F
:103760001188BFF34F8FBFF36F8FFEE72A46EEE756
:103770000023324669463846FFF7C0FCEBE70000FD
:103780006400002004550008000000000000000054
:10379000000000000000000000020000180000000F
:1037A00000000000000000000102020304050607FB
:1037B00008090A0B0C0D0E0F10100000000000008D
:1037C00000000102030406070809000000000102CE
:1037D00003040000000000000000002F00000000B3
:1037E0000700070000147F147F1400242A7F2A1288
:1037F0000062640813230036495522500000050377
:10380000000000001C224100000041221C000014A6
:10381000083E08140008083E0808000000A06000E8
:103820000008080808080000606000000020100878
:103830000402003E5149453E0000427F40000042E4
:1038400061514946002141454B31001814127F1047
:10385000002745454539003C4A4949300001710976
:10386000050300364949493600064949291E00002A
:1038700036360000000056360000000814224100D1
:103880000014141414140000412214080002015101
:10389000090600324959513E007C1211127C007F0A
:1038A00049494936003E41414122007F4141221CA5
:1038B000007F49494941007F09090901003E41490A
:1038C000497A007F0808087F0000417F41000020FE
:1038D00040413F01007F08142241007F40404040AA
:1038E000007F020C027F007F0408107F003E4141F0
:1038F000413E007F09090906003E4151215E007FDB
:10390000091929460046494949310001017F010151
:10391000003F4040403F001F2040201F003F4038F4
:10392000403F006314081463000708700807006133
:103930005149454300007F41410000552A552A5511
:10394000000041417F0000040201020400404040A9
:103950004040000001020400002054545478007FCD
:103960004844443800384444442000384444487FA4
:1039700000385454541800087E0901020018A4A409
:10398000A47C007F080404780000447D40000040CF
:1039900080847D00007F102844000000417F4000AB
:1039A000007C04180478007C08040478003844443F
:1039B000443800FC242424180018242418FC007C1B
:1039C0000804040800485454542000043F44402094
:1039D000003C4040207C001C2040201C003C40302B
:1039E000403C004428102844001CA0A0A07C0044B7
:1039F00064544C4414141414141400000000000007
:103A00000000000000000000FC00000000000200B8
:103A10000000000C020C020000000000000090D02A
:103A2000BCD0BC900003000300001824FE448C00AE
:103A30000302070201001824D8B04C8000030001E3
:103A40000201C038E438E000010202010202080667
:103A500000000000000000000000000000F8040268
:103A6000000000010204000204F80000000402014A
:103A700000009060F860900000000100000020202D
:103A8000FC202000000001000000000000000000F9
:103A90000806000000002020202020000000000078
:103AA0000000000000000000000200000000008094
:103AB000601C0200040300000000F8040404F80085
:103AC0000102020201000008FC00000000020302E3
:103AD00000001884442418000302020202000804B3
:103AE0002424D80001020202010040B088FC8000BA
:103AF0000000000302003C242424C400010202024E
:103B00000100F824242CC0000102020201000C0470
:103B1000E41C0400000003000000D8242424D80082
:103B200001020202010038444444F800000302028A
:103B30000100000010000000000002000000000072
:103B40002000000000000600000000205088040251
:103B50000000000001029090909090000000000092
:103B60000000000204885020000201000000180438
:103B7000C4241800000002000000F804E494F800D7
:103B800001020202020000E09CF08000020300003B
:103B9000030204FC2424D800020302020100F804FA
:103BA00004040C0001020202010004FC0404F800F9
:103BB00002030202010004FC24740C00020302024E
:103BC000030004FC24740C00020302000000F0084F
:103BD0000444CC4000010202010004FC2020FC044B
:103BE0000203000003020404FC04040002020302B6
:103BF0000200000404FC040406040403000004FCA6
:103C000024D00C0402030200030204FC04000000A0
:103C1000020302020203FC3CC03CFC000300030060
:103C2000030004FC30C4FC04020302000300F80497
:103C30000404F80001020202010004FC242418001C
:103C4000020302000000F8848404F8000102020765
:103C5000050004FC246498000203020003021824F7
:103C600024448C000302020201000C04FC040C003A
:103C700000020302000004FC0000FC040001020238
:103C80000100047C80E01C040000030000001CE034
:103C90003CE01C00000300030000049C609C040046
:103CA000020300030200041CE01C040000020302E3
:103CB00000000C84641C04000203020203000000E4
:103CC000FE020200000007040400000E30C00000E5
:103CD000000000010200000202FE000000040407D0
:103CE00000000004020400000000000000000000CA
:103CF0000000000008080808080800000200000092
:103D00000000000000000040A0A0C000000102026E
:103D1000030204FC2020C00000030202010000C0D6
:103D20002020600000010202020000C02024FC00EC
:103D300000010202030200C0A0A0C00000010202B4
:103D400002000020F82424040002030202000040C4
:103D5000A0A0602000070A0A0A0404FC2020C0007A
:103D60000203020003020020E4000000000203023C
:103D70000000000020E4000008080807000004FC20
:103D800080E020200203020003020404FC00000083
:103D9000020203020200E020E020C0000300030052
:103DA000030020E02020C00002030200030200C044
:103DB0002020C00000010202010020E02020C000FD
:103DC000080F0A02010000C02020E0000001020AE2
:103DD0000F0820E0402020000203020000000060E5
:103DE000A0A020000002020203000020F820000032
:103DF00000000102020020E00020E00000010202B9
:103E0000030220E0208060200000030100006080A9
:103E1000E08060000003000300002060806020005C
:103E200002030003020020E0208060200808070150
:103E300000000020A0602000000203020200000039
:103E400020DE0200000000070400000000FF000068
:103E50000000000F00000002DE2000000004070048
:103E60000000020102040402000000000000000043
:103E70000000000000000000000000000000000042
:103E800000F80000000000000033300000000010C7
:103E90000C06100C0600000000000000000040C0EE
:103EA0007840C0784000043F04043F0404000070E0
:103EB00088FC08300000001820FF211E0000F008D8
:103EC000F000E018000000211C031E211E0000F07D
:103ED0000888700000001E212324192721101016C5
:103EE0000E000000000000000000000000000000C4
:103EF00000E0180402000000000718204000000243
:103F00000418E000000000402018070000004040B6
:103F100080F0804040000202010F01020200000018
:103F200000F0000000000101011F0101010000007C
:103F300000000000000080B07000000000000000E1
:103F4000000000000000000101010101010100006A
:103F50000000000000000030300000000000000001
:103F6000000080601804006018060100000000E0F6
:103F700010080810E000000F102020100F000010A3
:103F800010F8000000000020203F202000000070FA
:103F900008080888700000302824222130000030F2
:103FA0000888884830000018202020110E000000EA
:103FB000C02010F8000000070424243F240000F86B
:103FC0000888880808000019212020110E0000E050
:103FD000108888180000000F112020110E000038F2
:103FE0000808C83808000000003F0000000000700A
:103FF000880808887000001C222121221C0000E093
:1040000010080810E0000000312222110F0000000B
:1040100000C0C000000000000030300000000000C0
:104020000080000000000000806000000000000030
:1040300080402010080000010204081020004040C9
:10404000404040404000040404040404040000080C
:1040500010204080000000201008040201000070C1
:1040600048080808F0000000003036010000C030A9
:10407000C828E810E0000718272423140B000000CC
:10408000C038E0000000203C23020227382008F856
:10409000888888700000203F202020110E00C0304A
:1040A000080808083800071820202010080008F821
:1040B00008080810E000203F202020100F0008F81A
:1040C0008888E8081000203F20202320180008F8E6
:1040D0008888E8081000203F200003000000C0305E
:1040E00008080838000007182020221E020008F8DF
:1040F00008000008F808203F210101213F200008A6
:1041000008F8080800000020203F202000000000E0
:104110000808F8080800C08080807F00000008F8C8
:1041200088C028180800203F20012638200008F801
:10413000080000000000203F20202020300008F868
:10414000F800F8F80800203F003F003F200008F882
:1041500030C00008F808203F200007183F00E0109A
:1041600008080810E0000F10202020100F0008F8A9
:1041700008080808F000203F210101010000E010BC
:1041800008080810E0000F18242438504F0008F8E1
:10419000888888887000203F2000030C3020007041
:1041A0008808080838000038202121221C0018083F
:1041B00008F8080818000000203F2000000008F858
:1041C00008000008F808001F202020201F000878A1
:1041D000880000C83808000007380E010000F80801
:1041E00000F80008F800033C0700073C030008182B
:1041F00068808068180820302C03032C3020083891
:10420000C800C83808000000203F20000000100847
:104210000808C8380800203826212020180000008F
:1042200000FE020202000000007F40404000000C3F
:1042300030C000000000000000010638C00000028D
:104240000202FE000000004040407F00000000002D
:104250000402020204000000000000000000000050
:10426000000000000000808080808080808000024C
:104270000204000000000000000000000000000038
:104280008080808000000019242222223F2008F82C
:10429000008080000000003F112020110E0000006F
:1042A000008080800000000E1120202011000000FE
:1042B00000808088F800000E112020103F200000B0
:1042C000808080800000001F2222222213000080B4
:1042D00080F0888888180020203F202000000000FF
:1042E000808080808000006B94949493600008F834
:1042F000008080800000203F210000203F200080BF
:104300009898000000000020203F202000000000BE
:1043100000809898000000C08080807F000008F82E
:10432000000080808000203F24022D302000000803
:1043300008F8000000000020203F202000008080BE
:10434000808080808000203F20003F20003F8080D0
:10435000008080800000203F210000203F200000DE
:10436000808080800000001F202020201F0080808F
:1043700000808000000080FFA12020110E000000BE
:10438000008080808000000E112020A0FF808080AF
:1043900080008080800020203F212000010000005C
:1043A0008080808080000033242424241900008031
:1043B00080E0808000000000001F2020000080803E
:1043C000000000808000001F202020103F208080FF
:1043D00080000080808000010E300806010080808F
:1043E0000080008080800F300C030C300F000080B4
:1043F0008000808080000020312E0E3120008080DF
:1044000080000080808080818E701806010000800E
:104410008080808080000021302C2221300000002C
:104420000000807C020200000000003F40400000CD
:104430000000FF00000000000000FF00000000027C
:10444000027C800000000040403F000000000006A9
:10445000010102020404000000000000000000004E
:10446000000000000000000000000000000000004C
:10447000000000000000000000000000000000003C
:1044800000000000000000F0F0F00000000000005C
:10449000000000017F010000000000000000001C7F
:1044A0001C1C0000000000008060301C8C60301C70
:1044B0000C000000000000000000000000000000F0
:1044C00000000000000000000000000000E000000C
:1044D000000000E000000086E69F86868686E69F54
:1044E000860000011F01010101011F010100000000
:1044F00080C06020F820E0C00000000003070C1816
:10450000FF70E18100000000070F10107F100F07FF
:1045100000008060206080000000E02000000F307C
:1045200020309F70DC371030C0000000100E0300F8
:104530000718101807000000C02020E0C00000008D
:10454000000080E01F38E88703C43C040000070F28
:104550001810100B070D1010080000808C4C38004C
:10456000000000000000000000000000000000004B
:10457000000000000000000000000000000000003B
:104580000000000080E0300804000000000000FE91
:10459000FF0100000000000000000000030F1820D1
:1045A000400000040830E08000000000000000002F
:1045B000000001FFFE0000000000004020180F0373
:1045C000000000000000000000000000C00000002B
:1045D0000000004266663C18FF183C666642000018
:1045E00000000000030000000000000000000000C8
:1045F000800000000000001010101010FF101010BC
:104600001010000000000000030000000000000087
:10461000000000000000000000000000000000009A
:1046200000000000000000808C4C380000000000FA
:10463000000000000000000000000000000000106A
:1046400010101010101010101000000000000000DA
:10465000000000000000000000000000000000005A
:10466000000000000000000000000000000000004A
:104670001C1C1C00000000000000000000000000E6
:104680000000E0380C000000000080701C030000F7
:1046900000000060380E0100000000000000000073
:1046A00080C060202060C080000000FEFF0100008C
:1046B000000001FFFE000001070E181010180E0781
:1046C00001000000808080C0E000000000000000C9
:1046D000000000FFFF000000000000001010101F8D
:1046E0001F10101000000080402020202060C0809B
:1046F000000000030300804020381F070000001C5A
:104700001A1918181818181F00000080C02020203F
:1047100060C080000000000303001010182FE78025
:10472000000000070F10101010180F070000000005
:1047300000000000C0E0F000000000C0B0888681EA
:1047400080FFFF808000000000000010101F1F107D
:1047500010000000E06060606060606000000000C9
:104760003F1008080818F0E0000000070B101010B8
:10477000101C0F030000000080C040202020E0C07B
:10478000000000FCFF211008080818F0E0000001FC
:10479000070C18101010080F03000000C0E0606044
:1047A000606060E06000000003000000E0180700A7
:1047B000000000000000001F1F000000000000803B
:1047C000C0602020202060C080000087EF2C1818D7
:1047D000303068CF830000070F0810101010180F3A
:1047E00007000000C0C020202020C0800000001F63
:1047F0003F604040402010FFFE0000000C1C1010E5
:1048000010080F030000000000000000000000007E
:10481000000000000000000E0E0E0000000000006E
:104820000000001C1C1C0000000000000000000034
:1048300000000000000000000000000C0C00000060
:1048400000000000000000583800000000000000D8
:10485000000000000080402010000000102844826A
:104860000100000000000000000000000102040838
:1048700010000000000000000000000000000084A4
:104880008484848484848484840000000000000084
:104890000000000000000000102040800000000028
:1048A0000000000000000000018244281000000009
:1048B0001008040201000000000000C020201010B9
:1048C000101030E0C0000003030000F010080C07D7
:1048D0000300000000001C1C1C0000000000000081
:1048E00000C0406020202040C00000FCFF01F00E0E
:1048F00003C1FE03807F0001070E0811111011098A
:1049000004020000000080E0E00000000000000061
:10491000807C4340477FF880000010181F10000083
:104920000000131F1C1020E0E02020202060C08029
:10493000000000FFFF10101010182FE78000101F5C
:104940001F1010101010180F0700000080C040202A
:1049500020202060E00000FCFF01000000000000BB
:1049600001000001070E181010100804030020E0D9
:10497000E02020202040C080000000FFFF00000059
:10498000000001FFFE00101F1F10101018080E0776
:10499000010020E0E020202020202060800000FF97
:1049A000FF101010107C00000000101F1F101010CE
:1049B00010101018060020E0E02020202020606069
:1049C000800000FFFF101010107C00000100101F7D
:1049D0001F100000000000000000000080C06020E8
:1049E000202040E0000000FCFF0100004040C0C16A
:1049F00040400001070E181010100F0F000020E0BB
:104A0000E0200000000020E0E02000FFFF10101078
:104A1000101010FFFF00101F1F1000000000101FDB
:104A20001F100000202020E0E020202000000000D7
:104A3000000000FFFF000000000000001010101F29
:104A40001F101010000000000000202020E0E020D7
:104A5000202000000000000000FFFF0000000060B8
:104A6000E0808080C07F3F00000020E0E020000068
:104A700020A06020200000FFFF30187CE3C0000071
:104A80000000101F1F10000001131F1C181020E051
:104A9000E020000000000000000000FFFF00000018
:104AA000000000000000101F1F1010101010101840
:104AB000060020E0E0E000000000E0E0E02000FF71
:104AC000013FFEC0E01E01FFFF00101F1000031F8A
:104AD0000300101F1F1020E0E0C0000000000020B5
:104AE000E02000FF0003071C78E08000FF00101F9B
:104AF000100000000000030F1F00000080C06020B5
:104B00002060C080000000FEFF010000000000FFE8
:104B1000FE000001070E181010180C07010020E01D
:104B2000E0202020202060C0800000FFFF20202007
:104B30002020301F0F00101F1F1000000000000079
:104B40000000000080C060202060C080000000FEE7
:104B5000FF010000000000FFFE000001070E111120
:104B6000133C7C67210020E0E0202020202060C052
:104B7000800000FFFF101030F0D0080F0700101F5A
:104B80001F10000000030F1C10100080C0602020C8
:104B900020204040E00000070F0C1818303060E083
:104BA0008100001F0C0810101010180F0700806003
:104BB000202020E0E020202060800100000000FF95
:104BC000FF000000000100000000101F1F10000087
:104BD000000020E0E020000000000020E02000FFB6
:104BE000FF00000000000000FF0000070F18101079
:104BF0001010100807002060E0E02000000020E016
:104C000060200000077FF88000807C030000000027
:104C10000000071F1C070000000020E0E02000E06B
:104C2000E0200020E0200007FFF8E01FFFFCE01F6D
:104C300000000000031F0300011F0300000000200C
:104C400060E0A0000020E0602000000000038F7CF6
:104C5000F8C6010000000010181E130001171F18ED
:104C600010002060E0E02000000020E06020000054
:104C700001073EF8E0180700000000000010101FB8
:104C80001F101000000000806020202020A0E0E025
:104C9000200000000000C0F03E0F030000000010E4
:104CA0001C1F17101010101806000000000000FC58
:104CB0000404040404000000000000FF00000000E1
:104CC000000000000000007F404040404000000025
:104CD00010E0000000000000000000000000031CC5
:104CE00060800000000000000000000000030C7065
:104CF000800000000404040404FC00000000000024
:104D00000000000000FF00000000000040404040A4
:104D1000407F0000000000000010080C040C081088
:104D20000000000000000000000000000000000083
:104D30000000000000000000000000000000000073
:104D40000000000000000000000000000000000063
:104D50000000808080808080808080808080000053
:104D6000000404080800000000000000000000002B
:104D70000000000000000000000000000000000033
:104D80000000000000000000000000000000000023
:104D900098D844642424FCF80000000F1F18101059
:104DA00010081F1F10180020E0F000000000000095
:104DB00000000000FFFF180804040CF8F0000000D9
:104DC0001F0F18101010180F030000000000000043
:104DD00000000000000000E0F8180404043C380063
:104DE000000000030F0C1010101008060000000057
:104DF000000000000020E0F0000000E0F81C0404C7
:104E00000408FFFF000000030F18101010081F0F08
:104E1000080000000000000000000000000000008A
:104E2000E0F8484444444C7870000000030F0C182C
:104E30001010100804000000000080C0602020E076
:104E4000C00000040404FFFF040404040000000088
:104E500010101F1F101010000000000000000000C4
:104E6000000000000000000070F88C04048CF8744E
:104E7000040C007076CF8D8D8D89C878700000206D
:104E8000E0F000000000000000000000FFFF080448
:104E90000404FCF8000000101F1F100000101F1F6A
:104EA0001000000000000060600000000000000032
:104EB000040404FCFC000000000000001010101F9F
:104EC0001F101010000000000000000000606000D3
:104ED000000000000000040404FCFC0000000000CE
:104EE000C0C08080C07F3F0000000020E0F00000D4
:104EF0000000000000000000FFFF80C0F41C04045C
:104F0000000000101F1F1100031F1C1010000000E4
:104F1000202020E0F000000000000000000000FF62
:104F2000FF000000000000001010101F1F101010E4
:104F3000000000000000000000000000000004FC71
:104F4000FC0804FCFC0804FCFC00101F1F10001FE0
:104F50001F10001F1F1000000000000000000000D4
:104F600000000004FCFC08080404FCF80000001029
:104F70001F1F100000101F1F100000000000000085
:104F800000000000000000E0F0180C04040C18F011
:104F9000E00000030F0C101010100C0F03000000B5
:104FA000000000000000000000000004FCFC0804F9
:104FB00004040CF8F0000080FFFF889010101C0F14
:104FC000030000000000000000000000000000E0FE
:104FD000F81C04040408F8FC000000030F1810106B
:104FE0009088FFFF8000000000000000000000002B
:104FF0000000040404FCFC100804040C0C00101055
:10500000101F1F1010100000000000000000000022
:1050100000000000000000003078CCC48484840CC0
:105020001C0000001E1810101011190F06000000BF
:10503000000000C000000000000000040404FFFFA6
:10504000040404000000000000000F1F1010100CEA
:10505000000000000000000000000000000000044C
:10506000FCFE00000004FCFE000000000F1F1810F2
:1050700010081F0F080000000000000000000000E2
:10508000000000040C3CFCC40000C43C0C04000004
:105090000000010F1E0E01000000000000000000D3
:1050A000000000000000043CFCC400E47CFC8480A0
:1050B0007C040000071F070000071F070000000016
:1050C000000000000000000000000004041C7CE45C
:1050D000C0341C0404000010101C1601131F1C18FF
:1050E00010000000000000000000000000000004AC
:1050F0000C3CFCC400C43C0404000000C080C13768
:105100000E01000000000000000000000000000090
:10511000000000001C0404C4F47C1C040000000017
:10512000101C1F17111010180E00000000000000C6
:1051300000F80C04000000000000001028EF000040
:105140000000000000000000003F60400000000080
:1051500000000000FF000000000000000000000050
:10516000FF0000000000000000000000FF00000041
:1051700000000000040CF800000000000000000027
:105180000000EF28100000000000000040603F0019
:105190000000000000000018060202040810202091
:1051A00030080000000000000000000000000000C7
:1051B000000000000000000000000000800000E08F
:1051C00002041800000040800000100C0300003FA3
:1051D00040404040407800010E000014A4442434B4
:1051E000AD6624940444A4140000080908080909C1
:1051F00009FD09090B08080908000000F80808F86B
:105200000C0B08F80808F800000040407F40407F81
:105210004040407F40407F4040000824236AAA2A43
:10522000AA6A2A2A2AEA020200001011151515FF9F
:1052300015151511100F3040F800000000C08080D7
:105240008080808080FC84808080808080C0C000DE
:105250000000000000FF7F404040404040FF4040D1
:105260004040404040FF7F00000000000000000080
:1052700000000000007F700000000000000000003F
:10528000000000000000000000000000000000001E
:1052900000FCF8000000000000000000000000001A
:1052A000000000000000FFFE0202020202020202F1
:1052B00002FFFF020202020202020202FF030000DA
:1052C0000000000000001F1F040404040404040480
:1052D00004FFFF0404040404040404041F00000089
:1052E00000000000000000000000000000000000BE
:1052F000007F3F00000000000000000000000000F0
:10530000000000000000000000000000000000009D
:10531000000000000000000000000000000000F895
:10532000F8F0F07020000000000000000000000015
:10533000000000000000000000000000000000006D
:1053400000000000000000000000800000000000DD
:10535000000000000000000000000000000000FF4E
:10536000FFFFFF0000000000000000000000000040
:10537000000000000000808000000000000000002D
:105380000000000000000000000000FFFFFE060615
:10539000060606060606060606060606060606FFB4
:1053A000FFFFFF06060606060606060606060606B2
:1053B0000606060606FFFFFFFF07020000000000CA
:1053C0000000000000000000000000FFFFFF0000E0
:1053D000000000000000000000000000000000FFCE
:1053E000FFFFFF00000000000000000000000000C0
:1053F0000000000000FFFFFFFF00000000000000B1
:105400000000000000000000000000FFFFFF18186F
:10541000181818181818181818181818181818FF25
:10542000FFFFFF1818181818181818181818181847
:105430001818181818FFFFFFFF00000000000000F8
:105440000000000000000000000002010100000058
:10545000000000000000000000000000000000FF4D
:10546000FFFFFF000000000000000000000000003F
:10547000000000000001010000000000000000002A
:10548000000000000000000000000000000000001C
:10549000000000000000000000000000000000FF0D
:1054A000FFFFFF00000000000000000000000000FF
:1054B00000000000000000000000000000000000EC
:1054C00000000000000000000000000000000000DC
:1054D0000000000000000000000000000000001FAD
:1054E0001F0F0F000000000000000000000000007F
:1054F00000000000000000000000000000000000AC
:105500000000000064656661756C745461736B0023
:105510003055000800000020A80000002801000805
:10552000D8550008A8000020382F000044010008CA
:10553000000000000000000000000000000000006B
:10554000000000000000000001000000100000004A
:105550000000000000127A000000000000000000BF
:10556000000000000000000000000000000000003B
:10557000000000000000000000000000000000002B
:10558000000000000000000000000000000000001B
:10559000000000000000000000000000000000000B
:1055A00000000000000000000000000000000000FB
:1055B00000000000000000000000000000000000EB
:1055C00000000000000000000000000000000000DB
:0855D000AAAAAAAA000000002B
:04000005080000ED02
:00000001FF
